:100000000C942A000C943C000C943C000C943C0092
:100010000C943C000C943C000C943C000C943C0070
:100020000C943C000C943C000C943C000C943C0060
:100030000C943C000C943C000C943C000C943C0050
:100040000C943C000C943C000C943C000C943C0040
:100050000C943C0011241FBECFE5D4E0DEBFCDBF21
:1000600020E0A0E6B0E001C01D92A436B207E1F79F
:100070000E9490010C9498010C940000FC01000077
:1000800080E090E020E030E061E070E0AF01022E1F
:1000900002C0559547950A94E2F740FF02C0C59A01
:1000A00001C0C598C7980000AB01022E02C0440FE2
:1000B000551F0A94E2F7B69B03C0842B952B04C00E
:1000C0004095509584239523C79A2F5F3F4F283042
:1000D0003105E1F6C59A26E02A95F1F700C00895AA
:1000E000CF93C0E0C59AC79AC49881E090E00E947F
:1000F0003E0083E490E00E943E0080E090E00E9499
:100100003E0081E090E00E943E0080E090E00E948E
:100110003E00C59A89EF90E00197F1F700C000001A
:10012000C49A83EC99E00197F1F700C00000C59AEA
:10013000C79AC49881E090E00E943E0084E490E079
:100140000E943E0080E090E00E943E0081E090E04E
:100150000E943E0083E090E00E943E0080E090E03C
:100160000E943E0080E090E00E943E0080E090E02F
:100170000E943E0080E090E00E943E00C59A89EF18
:1001800090E00197F1F700C00000C49A83EC99E079
:100190000197F1F700C00000C59AC79AC49881E0A2
:1001A00090E00E943E0083E490E00E943E0080E0E8
:1001B00090E00E943E0080E090E00E943E008AE5D0
:1001C00090E00E943E008AE590E00E943E008AE5B1
:1001D00090E00E943E008AE590E00E943E008AE5A1
:1001E00090E00E943E00C59A89EF90E00197F1F7F8
:1001F00000C00000C49A83EC99E00197F1F700C0B9
:100200000000C59AC79AC49881E090E00E943E0021
:1002100082E490E00E943E0080E090E00E943E0078
:1002200080E090E00E943E0080E090E00E943E006E
:1002300080E090E00E943E0080E090E00E943E005E
:1002400080E090E00E943E0080E090E00E943E004E
:10025000C59A89EF90E00197F1F700C00000C49AB9
:1002600083EC99E00197F1F700C00000C5BBCF5FB8
:10027000C93109F037CFCF9108958FEF84BBBF9A72
:10028000BE98C69ABB98C39ABD9ABC9A0C9470004B
:10029000EF92FF920F931F93CF93DF93C59AC79A64
:1002A000C49881E090E00E943E0082E490E00E94C9
:1002B0003E0080E090E00E943E0080E090E00E94DE
:1002C0003E00EC0180E090E00E943E0080E090E083
:1002D0000E943E007C0180E090E00E943E008C0184
:1002E00080E090E00E943E0080E090E00E943E00AE
:1002F0000000C59A0000C49AE0E6F0E0F182E082D6
:10030000138302838BE49DE10197F1F700C00000A5
:10031000CE01DF91CF911F910F91FF90EF90089543
:100320000E943D018FEF84BB0E94480185BBFCCF3A
:04033000F894FFCF6F
:00000001FF
