:100000000C942A000C9434000C9434000C943400AA
:100010000C9434000C9434000C9434000C94340090
:100020000C9434000C9434000C9434000C94340080
:100030000C9434000C9434000C9434000C94340070
:100040000C9434000C9434000C9434000C94340060
:100050000C94340011241FBECFE5D4E0DEBFCDBF29
:100060000E943B000C9419010C9400008FB9779BFF
:10007000FECF8FB1089580EB87BB18BA8FEF84BB9A
:1000800015BA8EE78DB981E08EB9C0E088B3806A79
:1000900088BBC49881E00E94360083E40E94360049
:1000A00080E00E94360081E00E94360080E00E94DD
:1000B0003600C59A89EF90E00197F1F700C0000083
:1000C000C49A83EC99E00197F1F700C0000088B36F
:1000D000806A88BBC49881E00E94360084E40E9454
:1000E000360080E00E94360081E00E94360083E006
:1000F0000E94360080E00E94360080E00E943600B8
:1001000080E00E94360080E00E943600C59A89EFA8
:1001100090E00197F1F700C00000C49A83EC99E0E9
:100120000197F1F700C0000088B3806A88BBC498CB
:1001300081E00E94360083E40E94360080E00E9445
:10014000360080E00E9436008AE50E9436008AE58B
:100150000E9436008AE50E9436008AE50E94360039
:100160008AE50E943600C59A89EF90E00197F1F781
:1001700000C00000C49A83EC99E00197F1F700C039
:10018000000088B3806A88BBC49881E00E94360072
:1001900082E40E94360080E00E94360080E00E94E7
:1001A000360080E00E94360080E00E94360080E049
:1001B0000E94360080E00E94360080E00E943600F7
:1001C000C59A89EF90E00197F1F700C00000C49A4A
:1001D00083EC99E00197F1F700C00000CF5FC5BB49
:1001E000C53F09F053CF88B3806A88BBC49881E0CB
:1001F0000E94360082E40E94360080E00E943600B1
:1002000080E00E943600C82F80E00E94360080E027
:100210000E94360080E00E94360080E00E94360096
:1002200080E00E943600C5BB0000C59A0000C49A59
:06023000DACFF894FFCFC5
:00000001FF
