:100000000C942A000C9434000C9434000C943400AA
:100010000C9434000C9434000C9434000C94340090
:100020000C9434000C9434000C9434000C94340080
:100030000C9434000C9434000C9434000C94340070
:100040000C9434000C9434000C9434000C94340060
:100050000C94340011241FBECFE5D4E0DEBFCDBF29
:100060000E943B000C9430010C9400008FB9779BE8
:10007000FECF8FB108951BBA8EEF8ABB18BA80EB02
:1000800087BB15BA8FEF84BB12BA80E381BB81EACC
:100090008FBD8AE08EBD17BC16BC1BBC1ABC19BC38
:1000A0008EE78DB981E08EB916BEDB9A88B3806A7F
:1000B00088BBC49881E00E94360083E40E94360029
:1000C00080E00E94360081E00E94360080E00E94BD
:1000D0003600C59A8FE99FE00197F1F700C0000054
:1000E000C49A8FE39CE90197F1F700C0000088B340
:1000F000806A88BBC49881E00E94360084E40E9434
:10010000360080E00E94360081E00E94360083E0E5
:100110000E94360080E00E94360080E00E94360097
:1001200080E00E94360080E00E943600C59A8FE988
:100130009FE00197F1F700C00000C49A8FE39CE9AB
:100140000197F1F700C0000088B3806A88BBC498AB
:1001500081E00E94360083E40E94360080E00E9425
:10016000360080E00E9436008AE50E9436008AE56B
:100170000E9436008AE50E9436008AE50E94360019
:100180008AE50E943600C59A8FE99FE00197F1F752
:1001900000C00000C49A8FE39CE90197F1F700C00A
:1001A000000088B3806A88BBC49881E00E94360052
:1001B00082E40E943600C82F80E00E94360080E072
:1001C0000E94360080E00E94360080E00E943600E7
:1001D00080E00E94360080E00E94360080E00E94AD
:1001E0003600C59A8FE99FE00197F1F700C0000043
:1001F000C49A8FE39CE90197F1F700C00000C33770
:1002000009F054CFDAEAD5BB88B3806A88BBC498BA
:1002100081E00E94360082E40E94360080E00E9465
:10022000360080E00E943600C82F80E00E94360031
:1002300080E00E94360080E00E94360080E00E944C
:10024000360080E00E943600C5BB95E09A95F1F734
:100250000000C59A85E08A95F1F70000C49AD3CFD3
:04026000F894FFCF40
:00000001FF
