:100000000C942A000C943C000C943C000C943C0092
:100010000C943C000C943C000C943C000C943C0070
:100020000C943C000C943C000C943C000C943C0060
:100030000C943C000C943C000C943C000C943C0050
:100040000C943C000C943C000C943C000C943C0040
:100050000C943C0011241FBECFE5D4E0DEBFCDBF21
:1000600020E0A0E6B0E001C01D92A236B207E1F7A1
:100070000E9452000C945C000C94000087B3806ACC
:1000800087BB6C9A689A6E9A08958FB9779BFECF5A
:100090008FB10895D99880EF0E9445008093610048
:1000A000D99A08950E943E008FEF84BB8ABBD99AEB
:0C00B0000E944A0015BAFCCFF894FFCF64
:00000001FF
