:100000000C9472000C9493000C9493000C94930045
:100010000C9493000C947B010C9493000C9493002B
:100020000C9493000C9493000C9493000C94930004
:100030000C9493000C94F2010C9493000C94930094
:100040000C9493000C9493000C9493000C949300E4
:100050000C9493000C9493000C9493000C949300D4
:100060000C9493000C9493000C9493000C949300C4
:100070000C9493000C9493000C9493000C949300B4
:100080000C9493000C9493000C9493000C949300A4
:100090000C9493000C9493000C9493000C94930094
:1000A0000C9493000C9493000C9493000C94930084
:1000B0000C9493000C9493000C9493000C94930074
:1000C0000C9493000C9493000C9493000C94930064
:1000D0000C9493000C9493000C9493000C94930054
:1000E0000C94930011241FBECFEFD1E2DEBFCDBF31
:1000F00000E00CBF12E0A0E0B2E0E4E7F8E000E0CE
:100100000BBF02C007900D92A230B107D9F722E0D1
:10011000A2E0B2E001C01D92A431B207E1F70E9453
:1001200029020C9438040C9400008EBD0DB407FE17
:10013000FDCF0895CF93DF931F92CDB7DEB72898F8
:1001400069830E9495006981862F0E949500289AF4
:100150000F90DF91CF910895CF93C09100026FE08F
:100160008C2F0E949A00C150D1F7CF910895CF9261
:10017000DF92EF92FF920F931F93CF93DF9300D004
:100180001F92CDB7DEB769837A838B839C83898185
:100190009A81AB81BC81B7FF11C089819A81AB8103
:1001A000BC81B095A095909581959F4FAF4FBF4F63
:1001B00089839A83AB83BC8301E001C000E00E9485
:1001C000AC0089819A81AB81BC81892B8A2B8B2BD6
:1001D00019F460E081E02CC011E08AE0C82ED12C37
:1001E000E12CF12C69817A818B819C81A701960198
:1001F0000E94C902812F0E949A0069817A818B81B5
:100200009C81A70196010E94C90229833A834B83EE
:100210005C8349815A816B817C8181E0810F452B10
:10022000462B472B11F0182FDDCF002379F06AE021
:100230000F900F900F900F90DF91CF911F910F9122
:10024000FF90EF90DF90CF900C949A000F900F905A
:100250000F900F90DF91CF911F910F91FF90EF9032
:10026000DF90CF90089584B1876084B98CB58265A2
:100270008CBD6FEF89E00E949A006091000261508E
:100280008BE00E949A0068E08AE00E949A0061E098
:100290008CE00E949A000895E1EAF0E080818E7F70
:1002A00080832FEF8FE392E0215080409040E1F770
:1002B00000C0000081E080930C02729821E32A952F
:1002C000F1F70000729A81E38A95F1F700007298C5
:1002D0000895EC98EAE6F0E0808181608083EC9AF2
:1002E00008951092A5001092A400E1EAF0E0808148
:1002F0008E7F808308951F920F920FB60F92112464
:100300000BB60F922F933F934F935F936F937F930F
:100310008F939F93AF93BF93EF93FF9380910C02C2
:10032000813009F047C090910F0291110CC0809369
:100330000F021092A5001092A4008091A10081608C
:100340008093A10037C010920F026091A4007091B9
:10035000A50080E090E00E94AA032AEF3DEE4BE664
:1003600051E40E9402036093080270930902809393
:100370000A0290930B0220E030E048E652E40E942B
:1003800002030E9474036093100270931102809321
:100390001202909313021092A5001092A4001092E2
:1003A0000C022FEF8FEB96E0215080409040E1F758
:1003B00000C00000FF91EF91BF91AF919F918F918D
:1003C0007F916F915F914F913F912F910F900BBE55
:1003D0000F900FBE0F901F9018958F3A08F48FEA78
:1003E00087BD08951F920F920FB60F9211248F931D
:1003F0009F93AF93BF93809106029091070201965D
:100400009093070280930602809106029091070262
:100410000C97B0F08091240190912501A0E0B0E00C
:100420008093020290930302A0930402B09305020A
:1004300010922501109224011092070210920602D8
:10044000BF91AF919F918F910F900FBE0F901F9012
:1004500018950E9433018FEF809307016A9A6C9878
:1004600084B1806F84B90E9469010E94710183E8A0
:1004700084BD89E085BD92E89093B00097E09093A9
:10048000B10090E99093B3001092200196E0909310
:10049000210192E0909370009FE2909390008093EE
:1004A00091001092920088E592E0909399008093D9
:1004B000980010920C02789484EFC82EDD24D39417
:1004C000E12CF12CCFEA80910C02811102C00E9434
:1004D0004C01409002025090030260900402709020
:1004E00005022091100230911102409112025091A8
:1004F0001302A0E1B7E20E94E8024B015C01A0EE0A
:10050000B1E0A30192010E94E802A70196010E94B6
:10051000A702C501B401620F711D811D911D0E94CA
:10052000B700809108018F778093080180910801BE
:10053000806480930801809108018F77809308017F
:10054000809108018F7B80930801C7BDBCCFA1E2D9
:100550001A2EAA1BBB1BFD010DC0AA1FBB1FEE1F3D
:10056000FF1FA217B307E407F50720F0A21BB30B88
:10057000E40BF50B661F771F881F991F1A9469F704
:1005800060957095809590959B01AC01BD01CF0160
:100590000895052E97FB1EF400940E94E00257FD7B
:1005A00007D00E94A70207FC03D04EF40C94E0028F
:1005B00050954095309521953F4F4F4F5F4F08958F
:1005C00090958095709561957F4F8F4F9F4F0895BF
:1005D0000E94F302A59F900DB49F900DA49F800DE3
:1005E000911D11240895A29FB001B39FC001A39F44
:1005F000700D811D1124911DB29F700D811D11245C
:10060000911D08950E9416030C94FE030E94F703A7
:1006100058F00E94F00340F029F45F3F29F00C9459
:10062000E70351110C9432040C94ED030E940F0463
:1006300068F39923B1F3552391F3951B550BBB2711
:10064000AA2762177307840738F09F5F5F4F220F56
:10065000331F441FAA1FA9F335D00E2E3AF0E0E84D
:1006600032D091505040E695001CCAF72BD0FE2F97
:1006700029D0660F771F881FBB1F2617370748072B
:10068000AB07B0E809F0BB0B802DBF01FF279358E3
:100690005F4F3AF09E3F510578F00C94E7030C94BD
:1006A00032045F3FE4F3983ED4F3869577956795DF
:1006B000B795F7959F5FC9F7880F911D9695879518
:1006C00097F90895E1E0660F771F881FBB1F621737
:1006D00073078407BA0720F0621B730B840BBA0BF5
:1006E000EE1F88F7E09508950E947B036894B1118E
:1006F0000C94320408950E94170488F09F5798F0D4
:10070000B92F9927B751B0F0E1F0660F771F881F16
:10071000991F1AF0BA95C9F714C0B13091F00E9430
:100720003104B1E008950C943104672F782F8827A5
:10073000B85F39F0B93FCCF3869577956795B39557
:10074000D9F73EF490958095709561957F4F8F4FC6
:100750009F4F0895E89409C097FB3EF490958095CB
:10076000709561957F4F8F4F9F4F9923A9F0F92F77
:1007700096E9BB279395F695879577956795B795F5
:10078000F111F8CFFAF4BB0F11F460FF1BC06F5FDB
:100790007F4F8F4F9F4F16C0882311F096E911C0ED
:1007A000772321F09EE8872F762F05C0662371F00E
:1007B00096E8862F70E060E02AF09A95660F771F22
:1007C000881FDAF7880F9695879597F9089597F916
:1007D0009F6780E870E060E008959FEF80EC0895E7
:1007E00000240A9416161706180609060895002410
:1007F0000A9412161306140605060895092E03948A
:10080000000C11F4882352F0BB0F40F4BF2B11F4FD
:1008100060FF04C06F5F7F4F8F4F9F4F089557FD5C
:100820009058440F551F59F05F3F71F04795880F5E
:1008300097FB991F61F09F3F79F0879508951216F5
:1008400013061406551FF2CF4695F1DF08C01616A1
:1008500017061806991FF1CF869571056105089452
:100860000895E894BB2766277727CB0197F9089569
:04087000F894FFCF2A
:0208740008007A
:00000001FF
