:100000000C942A000C943F000C943F000C943F0089
:100010000C943F000C943F000C943F000C943F0064
:100020000C943F000C943F000C943F000C943F0054
:100030000C943F000C943F000C943F000C943F0044
:100040000C943F000C943F000C943F000C943F0034
:100050000C943F0011241FBECFE5D8E0DEBFCDBF1A
:1000600010E0A0E6B0E0E0E8F2E002C005900D92FA
:10007000A236B107D9F70E94DE000C943E010C9421
:1000800000008FB9779BFECF0895CF93DF931F9227
:10009000CDB7DEB7C49869830E9441006981862F7D
:1000A0000E944100C49A0F90DF91CF910895CF93A1
:1000B000C09160006FE08C2F0E944500C150D1F7C5
:1000C000CF910895CF92DF92EF92FF920F931F93FB
:1000D000CF93DF9300D000D0CDB7DEB769837A83AA
:1000E0008B839C8389819A81AB81BC81B7FF11C0CE
:1000F00089819A81AB81BC81B095A09590958195BD
:100100009F4FAF4FBF4F89839A83AB83BC8301E07E
:1001100001C000E00E94570089819A81AB81BC81B7
:10012000892B8A2B8B2B19F460E081E02CC011E025
:100130008AE0C82ED12CE12CF12C69817A818B8147
:100140009C81A70196010E94FD00812F0E9445001D
:1001500069817A818B819C81A70196010E94FD00B3
:1001600029833A834B835C8349815A816B817C81EB
:1001700081E0810F452B462B472B11F0182FDDCF47
:10018000002379F06AE00F900F900F900F90DF91AD
:10019000CF911F910F91FF90EF90DF90CF900C9433
:1001A00045000F900F900F900F90DF91CF911F910E
:1001B0000F91FF90EF90DF90CF90089587B3806B01
:1001C00087BB8DB182658DB96FEF89E00E944500D4
:1001D0006091600061508BE00E94450068E08AE019
:1001E0000E94450061E08CE00E94450065E070E0FF
:1001F00080E090E00E946200FFCF052E97FB1EF486
:1002000000940E94140157FD07D00E941C0107FCB6
:1002100003D04EF40C9414015095409530952195DF
:100220003F4F4F4F5F4F0895909580957095619522
:100230007F4F8F4F9F4F0895A1E21A2EAA1BBB1B21
:10024000FD010DC0AA1FBB1FEE1FFF1FA217B307A2
:10025000E407F50720F0A21BB30BE40BF50B661FB8
:10026000771F881F991F1A9469F76095709580957C
:1002700090959B01AC01BD01CF010895F894FFCF8B
:02028000080074
:00000001FF
