:100000000C942A000C9447000C9447000C94470071
:100010000C9447000C9447000C9447000C94470044
:100020000C9447000C9447000C9447000C94470034
:100030000C9447000C9447000C9447000C94470024
:100040000C9447000C9447000C9447000C94470014
:100050000C94470011241FBECFE5D4E0DEBFCDBF16
:1000600011E0A0E6B0E0E4E0F6E002C005900D92F9
:10007000AC38B107D9F721E0ACE8B1E001C01D927E
:10008000A83DB207E1F70E9453020C9400030C94C0
:10009000000095E095BB8BBB8FEC97E00197F1F7E3
:1000A00000C0000081E085BB8FEC97E00197F1F77D
:1000B00000C00000089594E095BB8BBB8FEC97E0E7
:1000C0000197F1F700C0000015BA8FEC97E0019797
:1000D000F1F700C00000089588E30E945B0081E012
:1000E0000E945B0086E00E945B008EE00C945B0047
:1000F000CF93DF93EC018991882319F00E94490086
:10010000FACFDF91CF910895462F50E060E670E07E
:100110000E94C00280E690E00C94780010BC83E35B
:1001200089B98AB188618AB980B5866880BD089529
:100130005D9BFECF8CB908955F9BFECF8CB1089577
:10014000CF93DF93EC018991882319F00E949800E6
:10015000FACFDF91CF910895CF92DF92EF92FF9285
:100160000F931F93CF937C01C0E0062F10E067012F
:10017000CC0ED11C0E949C00F6018083282F880F92
:10018000330B2017310711F0CF5FF1CFF60110824A
:10019000C701CF911F910F91FF90EF90DF90CF900B
:1001A00008950C9498000C949C000C94A000CF929D
:1001B000DF92EF92FF920F931F93CF937C01C0E0E9
:1001C000062F10E06701CC0ED11C0E949C00F601A6
:1001D0008083282F880F330B2017310711F0CF5F52
:1001E000F1CFF6011082C701CF911F910F91FF90BF
:1001F000EF90DF90CF9008958CE089B92FEF84E3E2
:100200009CE0215080409040E1F700C0000086E66D
:1002100090E00E94A0008DE00E9498008AE00E9479
:1002200098006DE08DE891E00E94AC000E949C0077
:1002300080938C0169E670E08DE891E00E94B7023E
:1002400021E0892B09F020E0822F08952CE029B9C4
:100250002FEF34E34CE0215030404040E1F700C044
:100260000000603C22E172078105910519F48CE6DB
:1002700090E053C0603835E273078105910519F4A9
:100280008DE790E04AC061154BE474078105910544
:1002900019F48EE890E041C0611526E972078105E6
:1002A000910519F480EA90E038C0611531EE7307CA
:1002B0008105910519F482EB90E02FC0611542ECA5
:1002C000740741E08407910519F484EC90E025C09F
:1002D000611524E8720723E08207910519F487ED80
:1002E00090E01BC0611538E0730737E08307910584
:1002F00019F48AEE90E011C0611540E174074EE0F8
:100300008407910519F48DEF90E007C061157841DD
:100310008541910521F480E191E00E94A0008DE0EB
:100320000E9498008AE00E9498006DE08DE891E0BC
:100330000E94AC000E949C0080938C0169E670E0F2
:100340008DE891E00E94B70221E0892B09F020E0BE
:10035000822F0895CF93DF93EC018CE089B92FEFC2
:1003600084E39CE0215080409040E1F700C0000011
:1003700084E291E00E94A000CE010E94A0008DE0E6
:100380000E9498008AE00E9498006DE08DE891E05C
:100390000E94AC000E949C0080938C0169E670E092
:1003A0008DE891E00E94B70221E0892B09F020E05E
:1003B000822FDF91CF9108958CE089B92FEF84E3EC
:1003C0009CE0215080409040E1F700C000008DE2A9
:1003D00091E00E94A0008DE00E9498008AE00E94B7
:1003E00098006DE086EA91E00E94AC000E949C00BB
:1003F00080938C016DE08DE891E00E94AC000E943A
:100400009C0080938C0120E0E9E0E20FF0E0EA55E7
:10041000FE4F3081822F90E0FC01EA55FE4F3323DE
:1004200019F030832F5FF0CF108269E670E08DE81D
:1004300091E00E94B70221E0892B09F020E0822F91
:100440000895CF93DF93EC018CE089B92FEF84E31B
:100450009CE0215080409040E1F700C0000089E31B
:1004600091E00E94A000CE010E94A0008DE00E94B9
:1004700098008AE00E9498006DE08DE891E00E946B
:10048000AC000E949C0080938C0169E670E08DE8CE
:1004900091E00E94B70221E0892B09F020E0822F31
:1004A000DF91CF9108958FEF8ABB87E084BB0E94D4
:1004B0006C000E948E0082E491E00E94A0008DE01A
:1004C0000E9498008AE00E94980082E591E00E94D4
:1004D000A0008DE00E9498008AE00E9498008FE5BD
:1004E00091E00E94A0008DE00E9498008AE00E94A6
:1004F000980082E491E00E94780080EC0E945B000A
:1005000082E591E00E9478002FEF84E39CE0215087
:1005100080409040E1F700C000002FEF84E39CE0B2
:10052000215080409040E1F700C000002FEF84E3AD
:100530009CE0215080409040E1F700C000002FEF88
:1005400084E39CE0215080409040E1F700C000002F
:1005500081E00E945B008CE791E00E94780080ECD3
:100560000E945B000E949C000E944900FBCFFB019F
:10057000DC018D91019080190110D9F3990B089538
:100580004532510520F4423010F00C94CB02FB01AF
:100590001082CB010895BB274A3031F4992322F40D
:1005A000BDE2909581959F4F0C94D702BB27FB012C
:1005B0005527AA27880F991FAA1FA41710F0A41B5C
:1005C00083955051B9F7A05DAA3308F0A95DA193B6
:1005D000009779F7B111B1931192CB010C94F0020D
:1005E000DC01FC01672F71917723E1F7329704C09A
:1005F0007C916D9370836291AE17BF07C8F3089525
:04060000F894FFCF9C
:100604003030303030004154004F4B0041542B55B2
:100614004152543D343830302C302C300041542B6E
:10062400554152543D393630302C302C3000415431
:100634002B554152543D31393230302C302C30005E
:1006440041542B554152543D33383430302C302CE6
:10065400300041542B554152543D35373630302CFF
:10066400302C300041542B554152543D31313532F8
:1006740030302C302C300041542B554152543D32F3
:1006840033303430302C302C300041542B5541520F
:10069400543D3436303830302C302C300041542B1B
:1006A400554152543D3932313630302C302C3000E3
:1006B40041542B554152543D313338323430302C6F
:1006C400302C300041542B4E414D453D0041542BBC
:1006D40056455253494F4E3F0041542B50535744B3
:1006E4003D0041424C616220536F6C7574696F6EBA
:1006F40073007777772E61626C61622E696E0053A6
:10070400656E64206F6E6520436861726163746511
:100714007220617420612074696D6500526563659F
:0C0724006976656420446174613A00004D
:00000001FF
