:100000000C942A000C9434000C9434000C943400AA
:100010000C9434000C9434000C9434000C94340090
:100020000C9434000C9436000C9434000C9434007E
:100030000C9434000C9434000C9434000C94340070
:100040000C9434000C9434000C9434000C94340060
:100050000C94340011241FBECFE5D4E0DEBFCDBF29
:100060000E944A000C9457000C9400001F920F92BB
:100070000FB60F9211248F939F9380EE82BF98B397
:1000800080E2892788BB9F918F910F900FBE0F90C0
:100090001F901895BD9A80EE82BF81E083BF89BF13
:1000A000789414BA8FEF81BB83B382BBFDCFF894F1
:0200B000FFCF80
:00000001FF
