:100000000C9472000C9486000C9486000C9486006C
:100010000C9486000C9488000C9499000C94AA000F
:100020000C94BB000C9486000C9486000C94860003
:100030000C9486000C9486000C9486000C94860028
:100040000C9486000C9486000C9486000C94860018
:100050000C9486000C9486000C9486000C94860008
:100060000C9486000C9486000C9486000C948600F8
:100070000C9486000C9486000C9486000C948600E8
:100080000C9486000C9486000C9486000C948600D8
:100090000C9486000C9486000C9486000C948600C8
:1000A0000C9486000C9486000C9486000C948600B8
:1000B0000C9486000C9486000C9486000C948600A8
:1000C0000C9486000C9486000C9486000C94860098
:1000D0000C9486000C9486000C9486000C94860088
:1000E0000C94860011241FBECFEFD1E2DEBFCDBF3E
:1000F00000E00CBF22E0A0E0B2E001C01D92A430FD
:10010000B207E1F70E948A010C94A7010C94000049
:100110001F920F920FB60F9211248F9380910302BA
:100120008F5F809303028F910F900FBE0F901F90EF
:1001300018951F920F920FB60F9211248F938091F2
:1001400002028F5F809302028F910F900FBE0F907B
:100150001F9018951F920F920FB60F9211248F9334
:10016000809101028F5F809301028F910F900FBEEB
:100170000F901F9018951F920F920FB60F92112497
:100180008F93809100028F5F809300028F910F9078
:100190000FBE0F901F901895259A91EC90938000B8
:1001A00099E09093810010928900809388000895CF
:1001B0006B9A91EC9093900099E09093910010923B
:1001C0009900809398000895E1E0F1E090819860B3
:1001D000908391EC9093A00099E09093A1001092ED
:1001E000A9008093A8000895EAE0F1E0908198606A
:1001F000908391EC9093200199E0909321011092CB
:100200002901809328010895109811980895129853
:1002100013980895149815980895169817980895A6
:10022000109A11980895129A13980895149A15988F
:100230000895169A17980895119A10980895139A88
:1002400012980895159A14980895179A1698089573
:10025000CF93DF93EB0126E232E0AC01429FC00175
:10026000439F900D529F900D11242091030230E086
:100270008217930764F42091010230E082179307FC
:1002800034F40E9404010E940A0181E005C00E942A
:1002900010010E94160180E026E232E0C29FA00118
:1002A000C39F500DD29F500D11242091020230E0C7
:1002B0004217530774F42091000230E042175307AD
:1002C00044F4813071F40E940701DF91CF910C94C6
:1002D0000D01813031F40E941301DF91CF910C9414
:1002E0001901DF91CF9108952091030230E046E299
:1002F00052E0BC01649FC001659F900D749F900DFA
:1003000011248217930724F40E9404010C940A011B
:100310000C94100178948FEF81B987B980EF88B978
:100320008DBB8AEA80936A00779A769A759A749A56
:100330000E9404010E9407010E940A010E940D010F
:1003400063E070E083E090E00E947401F9CFF894DC
:02035000FFCFDD
:00000001FF
