:100000000C9472000C9493000C9493000C94930045
:100010000C9493000C9493000C9493000C94930014
:100020000C9493000C9493000C9493000C94930004
:100030000C9493000C9493000C9493000C949300F4
:100040000C9493000C9493000C9493000C949300E4
:100050000C9493000C944B010C9493000C9493001B
:100060000C9493000C9493000C9493000C949300C4
:100070000C9493000C9493000C9493000C949300B4
:100080000C9493000C9493000C9493000C949300A4
:100090000C9493000C9493000C9493000C94930094
:1000A0000C9493000C9493000C9493000C94930084
:1000B0000C9493000C9493000C9493000C94930074
:1000C0000C9493000C9493000C9493000C94930064
:1000D0000C9493000C9493000C9493000C94930054
:1000E0000C94930011241FBECFEFD1E2DEBFCDBF31
:1000F00000E00CBF12E0A0E0B2E0EAE2F4E000E0D1
:100100000BBF02C007900D92A230B107D9F722E0D1
:10011000A2E0B2E001C01D92AC30B207E1F70E944C
:1001200082010C9413020C9400008EBD0DB407FEE6
:10013000FDCF0895CF93DF931F92CDB7DEB72898F8
:1001400069830E9495006981862F0E949500289AF4
:100150000F90DF91CF910895CF93C09100026FE08F
:100160008C2F0E949A00C150D1F7CF910895CF9261
:10017000DF92EF92FF920F931F93CF93DF9300D004
:100180001F92CDB7DEB769837A838B839C83898185
:100190009A81AB81BC81B7FF11C089819A81AB8103
:1001A000BC81B095A095909581959F4FAF4FBF4F63
:1001B00089839A83AB83BC8301E001C000E00E9485
:1001C000AC0089819A81AB81BC81892B8A2B8B2BD6
:1001D00019F460E081E02CC011E08AE0C82ED12C37
:1001E000E12CF12C69817A818B819C81A701960198
:1001F0000E94DA01812F0E949A0069817A818B81A5
:100200009C81A70196010E94DA0129833A834B83DE
:100210005C8349815A816B817C8181E0810F452B10
:10022000462B472B11F0182FDDCF002379F06AE021
:100230000F900F900F900F90DF91CF911F910F9122
:10024000FF90EF90DF90CF900C949A000F900F905A
:100250000F900F90DF91CF911F910F91FF90EF9032
:10026000DF90CF90089584B1876084B98CB58265A2
:100270008CBD6FEF89E00E949A006091000261508E
:100280008BE00E949A0068E08AE00E949A0061E098
:100290008CE00C949A001F920F920FB60F921124CB
:1002A0008F939F93AF93BF93809106029091070223
:1002B0000196909307028093060280910602909126
:1002C00007024A97B0F08091240190912501A0E0A7
:1002D000B0E08093020290930302A0930402B093D3
:1002E000050210922501109224011092070210922B
:1002F0000602BF91AF919F918F910F900FBE0F900B
:100300001F9018950E94330182E884BD85E085BD69
:1003100088E487BD1092200186E08093210182E06D
:1003200080936E00789484EFC82EDD24D394E12C62
:10033000F12C20910202309103024091040250916D
:100340000502A0EFB0E00E94F901A70196010E940A
:10035000B801209308023093090240930A02509397
:100360000B026FEF7FEF8FEF9FE70E94B700E1CFA7
:10037000A1E21A2EAA1BBB1BFD010DC0AA1FBB1FA9
:10038000EE1FFF1FA217B307E407F50720F0A21B1B
:10039000B30BE40BF50B661F771F881F991F1A9488
:1003A00069F760957095809590959B01AC01BD01B2
:1003B000CF010895052E97FB1EF400940E94F101D1
:1003C00057FD07D00E94B80107FC03D04EF40C94EF
:1003D000F10150954095309521953F4F4F4F5F4F1C
:1003E000089590958095709561957F4F8F4F9F4FA1
:1003F00008950E940402A59F900DB49F900DA49FA4
:10040000800D911D11240895A29FB001B39FC001DA
:10041000A39F700D811D1124911DB29F700D811D30
:0A0420001124911D0895F894FFCFF8
:02042A000800C8
:00000001FF
