:100000000C942A000C9434000C9434000C943400AA
:100010000C9434000C9434000C9434000C94340090
:100020000C9434000C9434000C9434000C94340080
:100030000C9434000C9434000C9434000C94340070
:100040000C9434000C9434000C9434000C94340060
:100050000C94340011241FBECFE5D4E0DEBFCDBF29
:100060000E9442000C9459000C94000087B3806AEF
:1000700087BB8DB181658DB908958FB9779BFECF10
:100080008FB108950E9436008FEF84BB81E08ABB58
:10009000C1E01BBA83E40E943D00CBBB85BB2FE9C6
:1000A00086E891E0215080409040E1F700C00000D8
:0600B000F0CFF894FFCF31
:00000001FF
