:100000000C942A000C9434000C9434000C943400AA
:100010000C9434000C9434000C9434000C94340090
:100020000C9434000C9434000C9434000C94340080
:100030000C9434000C9434000C9434000C94340070
:100040000C9434000C9434000C9434000C94340060
:100050000C94340011241FBECFE5D4E0DEBFCDBF29
:100060000E9441000C9453000C94000080E487BB74
:100070008DB181648DB908958FB9779BFECF8FB113
:1000800008950E9436008FEF84BB8AEA0E943C00EC
:1000900085BB2FE986E891E0215080409040E1F750
:0A00A00000C00000F2CFF894FFCF7B
:00000001FF
