:100000000C942A000C943C000C943C000C943C0092
:100010000C943C000C943C000C943C000C943C0070
:100020000C943C000C943C000C943C000C943C0060
:100030000C943C000C943C000C943C000C943C0050
:100040000C943C000C943C000C943C000C943C0040
:100050000C943C0011241FBECFE5D4E0DEBFCDBF21
:1000600020E0A0E6B0E001C01D92A636B207E1F79D
:100070000E944C010C948A010C940000000020E0C6
:1000800030E090E0482F50E0E1E0F0E0822FBA014C
:10009000022E02C0759567950A94E2F760FF02C0D0
:1000A000C59A01C0C598C7980000BF0101C0660F7E
:1000B0008A95EAF7B69B02C0962B02C060959623FC
:1000C000C79A2F5F3F4F2830310501F7C59A86E068
:1000D0008A95F1F700C0892F0895C59AC79AC498E8
:1000E00081E00E943E0083E40E943E0080E00E9486
:1000F0003E0081E00E943E0080E00E943E00C59AE2
:1001000089EF90E00197F1F700C00000C49A83ECFA
:1001100099E00197F1F700C00000C59AC79AC4980A
:1001200081E00E943E0084E40E943E0080E00E9444
:100130003E0081E00E943E0083E00E943E0080E09D
:100140000E943E0080E00E943E0080E00E943E004F
:1001500080E00E943E00C59A89EF90E00197F1F798
:1001600000C00000C49A83EC99E00197F1F700C049
:100170000000C59AC79AC49881E00E943E0083E4BB
:100180000E943E0080E00E943E0080E00E943E000F
:100190008AE50E943E008AE50E943E008AE50E94B0
:1001A0003E008AE50E943E008AE50E943E00C59A14
:1001B00089EF90E00197F1F700C00000C49A83EC4A
:1001C00099E00197F1F700C00000C59AC79AC4985A
:1001D00081E00E943E0082E40E943E0080E00E9496
:1001E0003E0080E00E943E0080E00E943E0080E0F1
:1001F0000E943E0080E00E943E0080E00E943E009F
:1002000080E00E943E00C59A89EF90E00197F1F7E7
:1002100000C00000C49A83EC99E00197F1F700C098
:10022000000008958FEF84BBBF9ABE98C69ABD9A0E
:10023000BC9A0C946D00CF93DF93C59AC79AC4986B
:1002400081E00E943E0082E40E943E0080E00E9425
:100250003E0080E00E943E00C0E6D0E0888380E05F
:100260000E943E00898380E00E943E0080E00E9460
:100270003E0080E00E943E0080E00E943E000000C0
:10028000C59A0000C49A8BE49DE10197F1F700C084
:100290000000DF91CF9108958FE087BB0E9412018B
:1002A0008FEF8ABB81BB84BBC29AC39AC4E0D3E000
:1002B00012E001E00E941B01809160008E3E31F44B
:1002C00002BBD89AD998DA9ADB9821C08E3B31F4D8
:1002D00012BBD898D99ADA98DB9A19C0809161003C
:1002E0008B3F39F4D2BBD89AD998DA98DB9AC09A66
:1002F0000FC0873F41F4C2BBD898D99ADA9ADB98ED
:10030000C098C19AD7CFD898D998DB98DA98C09876
:08031000C198D0CFF894FFCF93
:00000001FF
