:100000000C942A000C943C000C943C000C943C0092
:100010000C943C000C943C000C943C000C943C0070
:100020000C943C000C943C000C943C000C943C0060
:100030000C943C000C943C000C943C000C943C0050
:100040000C943C000C943C000C943C000C943C0040
:100050000C943C0011241FBECFE5D4E0DEBFCDBF21
:1000600020E0A0E6B0E001C01D92A436B207E1F79F
:100070000E9498010C94CD010C940000FC0122E038
:100080002A95F1F700C080E090E020E030E061E0E8
:1000900070E0AF01022E02C0559547950A94E2F731
:1000A00040FF02C0C59A01C0C598C79842E04A9572
:1000B000F1F700C0AB01022E02C0440F551F0A9495
:1000C000E2F7B69B03C0842B952B04C04095509556
:1000D00084239523C79A2F5F3F4F28303105C9F6F7
:1000E000C59A25E32A95F1F700000895CF93C9E159
:1000F000C59AC79AC49881E090E00E943E0083E4CC
:1001000090E00E943E0080E090E00E943E0081E08E
:1001100090E00E943E0080E090E00E943E00C59A80
:100120008FEC97E00197F1F700C00000C49A8FE1CF
:100130009EE40197F1F700C00000C59AC79AC498E1
:1001400081E090E00E943E0084E490E00E943E0046
:1001500080E090E00E943E0081E090E00E943E003E
:1001600083E090E00E943E0080E090E00E943E002C
:1001700080E090E00E943E0080E090E00E943E001F
:1001800080E090E00E943E00C59A8FEC97E00197D6
:10019000F1F700C00000C49A8FE19EE40197F1F7E7
:1001A00000C00000C59AC79AC49881E090E00E9400
:1001B0003E0083E490E00E943E0080E090E00E94D8
:1001C0003E0080E090E00E943E008AE590E00E94C0
:1001D0003E008AE590E00E943E008AE590E00E94A1
:1001E0003E008AE590E00E943E008AE590E00E9491
:1001F0003E00C59A8FEC97E00197F1F700C0000030
:10020000C49A8FE19EE40197F1F700C00000C59AFF
:10021000C79AC49881E090E00E943E0082E490E09A
:100220000E943E0080E090E00E943E0080E090E06E
:100230000E943E0080E090E00E943E0080E090E05E
:100240000E943E0080E090E00E943E0080E090E04E
:100250000E943E0080E090E00E943E00C59A8FEC34
:1002600097E00197F1F700C00000C49A8FE19EE487
:100270000197F1F700C00000C15009F039CFCF91CC
:1002800008958FEF84BBBF9ABE98C69ABD9ABC9A58
:100290000C947600EF92FF920F931F93CF93DF930E
:1002A000C59AC79AC49881E090E00E943E0082E41B
:1002B00090E00E943E0080E090E00E943E0080E0DE
:1002C00090E00E943E00EC0180E090E00E943E0041
:1002D00080E090E00E943E007C0180E090E00E947F
:1002E0003E008C0180E090E00E943E0080E090E0C3
:1002F0000E943E0082E08A95F1F700C0C59A92E024
:100300009A95F1F700C0C49AE0E6F0E0F182E0824D
:10031000138302838FE59AEE0197F1F700C0000086
:10032000CE01DF91CF911F910F91FF90EF90089533
:100330000E9441018FEF8ABB81BB84BB82BB929A32
:10034000939A0E944A0185BB8C3C910529F4D89A66
:10035000D998DA98DB9A1EC08C33910529F4D89885
:10036000D99ADA9ADB9816C08C37910531F4D89A6D
:10037000D998DA9ADB98909A0EC0D8988C39910562
:1003800031F4D99ADA98DB9A9098919ADACFD99881
:0E039000DB98DA9890989198D4CFF894FFCF2C
:00000001FF
