:100000000C942A000C9447000C9447000C94470071
:100010000C94FF000C9447000C9447000C9447008C
:100020000C9447000C9447000C9447000C94470034
:100030000C9447000C9447000C9447000C94470024
:100040000C9447000C9447000C9447000C94470014
:100050000C94470011241FBECFE5D8E0DEBFCDBF12
:1000600010E0A0E6B0E0EAE8F3E002C005900D92EF
:10007000A236B107D9F720E0A2E6B0E001C01D9298
:10008000AA36B207E1F70E9432010C94C3010C9426
:1000900000008FB9779BFECF0895CF93DF931F9217
:1000A000CDB7DEB7C49869830E9449006981862F65
:1000B0000E944900C49A0F90DF91CF910895CF9389
:1000C000C09160006FE08C2F0E944D00C150D1F7AD
:1000D000CF910895CF92DF92EF92FF920F931F93EB
:1000E000CF93DF9300D000D0CDB7DEB769837A839A
:1000F0008B839C8389819A81AB81BC81B7FF11C0BE
:1001000089819A81AB81BC81B095A09590958195AC
:100110009F4FAF4FBF4F89839A83AB83BC8301E06E
:1001200001C000E00E945F0089819A81AB81BC819F
:10013000892B8A2B8B2B19F460E081E02CC011E015
:100140008AE0C82ED12CE12CF12C69817A818B8137
:100150009C81A70196010E946801812F0E944D0099
:1001600069817A818B819C81A70196010E94680137
:1001700029833A834B835C8349815A816B817C81DB
:1001800081E0810F452B462B472B11F0182FDDCF37
:10019000002379F06AE00F900F900F900F90DF919D
:1001A000CF911F910F91FF90EF90DF90CF900C9423
:1001B0004D000F900F900F900F90DF91CF911F91F6
:1001C0000F91FF90EF90DF90CF90089587B3806BF1
:1001D00087BB8DB182658DB96FEF89E00E944D00BC
:1001E0006091600061508BE00E944D0068E08AE001
:1001F0000E944D0061E08CE00E944D0008951F9226
:100200000F920FB60F9211248F939F93AF93BF93CA
:1002100080916400909165000196909365008093B1
:10022000640080916400909165004A9790F08CB5CD
:100230009DB5A0E0B0E08093660090936700A09326
:100240006800B09369001DBC1CBC10926500109240
:100250006400BF91AF919F918F910F900FBE0F904F
:100260001F9018958FE285BD8AE083BD1FBC86E094
:100270008EBD80E889BF0E94E60084EFC82EDD2491
:10028000D394E12CF12C20916600309167004091CD
:10029000680050916900A0EFB0E00E948701A701BB
:1002A00096010E946801309363002093620061E030
:1002B00081E00E944D0062E082E00E944D0063E018
:1002C00083E00E944D0069E089E00E944D00DBCF91
:1002D000052E97FB1EF400940E947F0157FD07D066
:1002E0000E94920107FC03D04EF40C947F015095BC
:1002F0004095309521953F4F4F4F5F4F0895909512
:100300008095709561957F4F8F4F9F4F08950E9404
:10031000B401A59F900DB49F900DA49F800D911DD9
:1003200011240895A1E21A2EAA1BBB1BFD010DC0CA
:10033000AA1FBB1FEE1FFF1FA217B307E407F50795
:1003400020F0A21BB30BE40BF50B661F771F881F71
:10035000991F1A9469F760957095809590959B0107
:10036000AC01BD01CF010895A29FB001B39FC001B0
:10037000A39F700D811D1124911DB29F700D811DD1
:0A0380001124911D0895F894FFCF99
:02038A00100061
:00000001FF
