:100000000C942A000C94AE010C943C000C943C001F
:100010000C943C000C943C000C943C000C943C0070
:100020000C943C000C943C000C943C000C943C0060
:100030000C943C000C943C000C943C000C943C0050
:100040000C943C000C943C000C943C000C943C0040
:100050000C943C0011241FBECFE5D4E0DEBFCDBF21
:1000600020E0A0E6B0E001C01D92A336B207E1F7A0
:100070000E9401020C9438020C9400008BBB88ECA7
:1000800090E09BBD8ABD99BD88BD089562E06A95E8
:10009000F1F700C020E030E090E0482F50E0E1E0D0
:1000A000F0E0822FBA01022E02C0759567950A947E
:1000B000E2F760FF02C0C59A01C0C598C79862E028
:1000C0006A95F1F700C0BF0101C0660F8A95EAF793
:1000D000B69B02C0962B02C060959623C79A2F5FED
:1000E0003F4F28303105E9F6C59A85E38A95F1F747
:1000F0000000892F0895C59AC79AC49881E00E948C
:10010000460083E40E94460080E00E94460081E0B1
:100110000E94460080E00E944600C59A8FEC97E05E
:100120000197F1F700C00000C49A8FE19EE40197A7
:10013000F1F700C00000C59AC79AC49881E00E94F8
:10014000460084E40E94460080E00E94460081E070
:100150000E94460083E00E94460080E00E94460024
:1001600080E00E94460080E00E94460080E00E94FD
:100170004600C59A8FEC97E00197F1F700C00000A8
:10018000C49A8FE19EE40197F1F700C00000C59A80
:10019000C79AC49881E00E94460083E40E9446000A
:1001A00080E00E94460080E00E9446008AE50E94AE
:1001B00046008AE50E9446008AE50E9446008AE5DC
:1001C0000E9446008AE50E944600C59A8FEC97E09F
:1001D0000197F1F700C00000C49A8FE19EE40197F7
:1001E000F1F700C00000C59AC79AC49881E00E9448
:1001F000460082E40E94460080E00E94460080E0C3
:100200000E94460080E00E94460080E00E94460076
:1002100080E00E94460080E00E94460080E00E944C
:100220004600C59A8FEC97E00197F1F700C00000F7
:10023000C49A8FE19EE40197F1F700C00000089591
:10024000BF9ABE98C69ABD9ABC9A0C947B00CF9375
:10025000C59AC79AC49881E00E94460082E40E9431
:10026000460080E00E94460080E00E944600C82FC1
:1002700080E00E94460080E00E94460080E00E94EC
:10028000460080E00E94460080E00E94460082E036
:100290008A95F1F700C0C59A92E09A95F1F700C0EF
:1002A000C49A8FE59AEE0197F1F700C000008C2FF9
:1002B000CF9108958BBB089585B7836085BF8BB7B9
:1002C00080648BBF089590BD89B986E880BD88E1C0
:1002D0008AB908955F9BFECF8CB108955D9BFECFD8
:1002E0008CB908958FB5816F8FBD8EB589608EBD35
:1002F000089523E230E0A901481B590BCA019A0175
:10030000220F331F280F391F63527109680F791F9D
:10031000620F731F9B012C543F4F85E08BBB1BBCAE
:1003200019BC84EB90E0861B970B8F3F910519F069
:1003300010F08FEF90E02F3F310519F010F02FEF04
:1003400030E08035910510F480E590E020353105EE
:1003500010F420E530E02ABD88BD08951F920F9269
:100360000FB60F9211242F938F939F931BBA8091F6
:10037000600090916100880F991F909361008093B5
:1003800060002FEF83ED90E3215080409040E1F733
:1003900000C000009F918F912F910F900FBE0F9082
:1003A0001F901895CF93DF9300D0CDB7DEB78E9A0C
:1003B000969A83E390E00E9463010E945C01789426
:1003C00063E270E0969869837A830E946A01082F3D
:1003D00010E0AE9A69817A810F3F110521F480E027
:1003E0000E943E0003C0C8010E9479012FE788E304
:1003F00091E0215080409040E1F700C00000B8013A
:10040000E1CF8FE087BB0E9420018FEF84BB8ABBC6
:100410000E94720181B3806381BBC4E0D3E012E02B
:1004200001E00E94270185BB8C3C29F485E00E94F5
:100430003E0005BBF6CF8C3729F489E00E943E00D0
:1004400015BBEFCF8C3329F48AE00E943E00D5BB68
:10045000E8CF8C3929F486E00E943E00C5BBE1CF8D
:10046000843E11F40E94D20180E00E943E00D9CF68
:04047000F894FFCF2E
:00000001FF
