:100000000C942A000C94BE010C943C000C943C000F
:100010000C943C000C943C000C943C000C943C0070
:100020000C943C000C943C000C943C000C943C0060
:100030000C943C000C943C000C943C000C943C0050
:100040000C943C000C943C000C943C000C943C0040
:100050000C943C0011241FBECFE5D4E0DEBFCDBF21
:1000600020E0A0E6B0E001C01D92A336B207E1F7A0
:100070000E94E2010C947F030C9400008BBB88EC7F
:1000800090E09BBD8ABD99BD88BD089562E06A95E8
:10009000F1F700C020E030E090E0482F50E0E1E0D0
:1000A000F0E0822FBA01022E02C0759567950A947E
:1000B000E2F760FF02C0C59A01C0C598C79862E028
:1000C0006A95F1F700C0BF0101C0660F8A95EAF793
:1000D000B69B02C0962B02C060959623C79A2F5FED
:1000E0003F4F28303105E9F6C59A85E38A95F1F747
:1000F0000000892F0895C59AC79AC49881E00E948C
:10010000460083E40E94460080E00E94460081E0B1
:100110000E94460080E00E944600C59A8FEC97E05E
:100120000197F1F700C00000C49A8FE19EE40197A7
:10013000F1F700C00000C59AC79AC49881E00E94F8
:10014000460084E40E94460080E00E94460081E070
:100150000E94460083E00E94460080E00E94460024
:1001600080E00E94460080E00E94460080E00E94FD
:100170004600C59A8FEC97E00197F1F700C00000A8
:10018000C49A8FE19EE40197F1F700C00000C59A80
:10019000C79AC49881E00E94460083E40E9446000A
:1001A00080E00E94460080E00E9446008AE50E94AE
:1001B00046008AE50E9446008AE50E9446008AE5DC
:1001C0000E9446008AE50E944600C59A8FEC97E09F
:1001D0000197F1F700C00000C49A8FE19EE40197F7
:1001E000F1F700C00000C59AC79AC49881E00E9448
:1001F000460082E40E94460080E00E94460080E0C3
:100200000E94460080E00E94460080E00E94460076
:1002100080E00E94460080E00E94460080E00E944C
:100220004600C59A8FEC97E00197F1F700C00000F7
:10023000C49A8FE19EE40197F1F700C00000089591
:10024000BF9ABE98C69ABD9ABC9A0C947B00CF9375
:10025000C59AC79AC49881E00E94460082E40E9431
:10026000460080E00E94460080E00E944600C82FC1
:1002700080E00E94460080E00E94460080E00E94EC
:10028000460080E00E94460080E00E94460082E036
:100290008A95F1F700C0C59A92E09A95F1F700C0EF
:1002A000C49A8FE59AEE0197F1F700C000008C2FF9
:1002B000CF9108958BBB089585B7836085BF8BB7B9
:1002C00080648BBF089590BD89B986E880BD88E1C0
:1002D0008AB908955F9BFECF8CB108955D9BFECFD8
:1002E0008CB908958FB5816F8FBD8EB589608EBD35
:1002F00008950F931F93CF93DF93EB0103E210E078
:10030000081B190BB801012E000C880B990B0E94D9
:1003100086022AE939E949E95FE30E94EA020E947C
:100320004E02A397C00FD11FC60FD71F9E0128539F
:100330003F4F85E08BBB1BBC19BC88EC90E08C1B4D
:100340009D0B8F3F910519F010F08FEF90E02F3F3C
:10035000310519F010F02FEF30E08035910510F4E1
:1003600080E590E02035310510F420E530E02ABD2D
:1003700088BDDF91CF911F910F9108951F920F9229
:100380000FB60F9211242F938F939F931BBA8091D6
:10039000600090916100880F991F90936100809395
:1003A00060002FEF83ED90E3215080409040E1F713
:1003B00000C000009F918F912F910F900FBE0F9062
:1003C0001F9018958FE087BB0E9420018FEF84BBA0
:1003D0008ABB8E9A969A83E390E00E9463010E9402
:1003E0005C0178940E94720181B3806381BBC0E09C
:1003F00013E200E0FF24F39484E0E82E93E0D92E8A
:1004000022E0C22E3AEAB32E0E942701843E21F058
:10041000883F21F1CC2311F185BB8C3C29F485E088
:100420000E943E00F5BA18C08C3729F489E00E947A
:100430003E00C5BA11C08C3329F48AE00E943E0008
:10044000D5BA0AC08C3929F486E00E943E00E5BA8C
:1004500003C080E00E943E00C1E0D6CFB5BA9698B6
:100460000E946A01C82FD0E0969ACF3FD10521F4AF
:1004700080E00E943E0005C0612F702FCE010E94D7
:1004800079012FE788E391E0215080409040E1F727
:1004900000C000001C2F0D2FC0E0B6CF0E945502F7
:1004A0006894B1110C94E40208950E94C90288F086
:1004B0009F5798F0B92F9927B751B0F0E1F0660F28
:1004C000771F881F991F1AF0BA95C9F714C0B13069
:1004D00091F00E94E302B1E008950C94E302672FCB
:1004E000782F8827B85F39F0B93FCCF38695779598
:1004F0006795B395D9F73EF4909580957095619581
:100500007F4F8F4F9F4F0895E89409C097FB3EF4AB
:1005100090958095709561957F4F8F4F9F4F992350
:10052000A9F0F92F96E9BB279395F69587957795CE
:100530006795B795F111F8CFFAF4BB0F11F460FF8E
:100540001BC06F5F7F4F8F4F9F4F16C0882311F0E6
:1005500096E911C0772321F09EE8872F762F05C0FA
:10056000662371F096E8862F70E060E02AF09A9595
:10057000660F771F881FDAF7880F9695879597F98A
:10058000089557FD9058440F551F59F05F3F71F083
:100590004795880F97FB991F61F09F3F79F08795EA
:1005A0000895121613061406551FF2CF4695F1DF73
:1005B00008C0161617061806991FF1CF8695710503
:1005C000610508940895E894BB2766277727CB0137
:1005D00097F908950E94FD020C946E030E94600337
:1005E00038F00E94670320F0952311F00C94570314
:1005F0000C945D0311240C94E4020E94C10270F378
:10060000959FC1F3950F50E0551F629FF001729FB7
:10061000BB27F00DB11D639FAA27F00DB11DAA1FC6
:10062000649F6627B00DA11D661F829F2227B00D13
:10063000A11D621F739FB00DA11D621F839FA00D9E
:10064000611D221F749F3327A00D611D231F849FEE
:10065000600D211D822F762F6A2F11249F57504045
:100660009AF0F1F088234AF0EE0FFF1FBB1F661FC0
:10067000771F881F91505040A9F79E3F510580F089
:100680000C9457030C94E4025F3FE4F3983ED4F3D8
:10069000869577956795B795F795E7959F5FC1F72D
:1006A000FE2B880F911D9695879597F9089597F9D8
:1006B0009F6780E870E060E008959FEF80EC089508
:1006C00000240A9416161706180609060895002431
:1006D0000A9412161306140605060895092E0394AB
:1006E000000C11F4882352F0BB0F40F4BF2B11F41F
:1006F00060FF04C06F5F7F4F8F4F9F4F0895F89446
:02070000FFCF29
:00000001FF
