:100000000C942A000C943C000C943C000C943C0092
:100010000C943C000C943C000C943C000C943C0070
:100020000C943C000C943C000C943C000C943C0060
:100030000C943C000C943C000C943C000C943C0050
:100040000C943C000C943C000C943C000C943C0040
:100050000C943C0011241FBECFE5D8E0DEBFCDBF1D
:1000600020E0A0E6B0E001C01D92A636B207E1F79D
:100070000E9480010C948A010C940000FC01000095
:1000800080E090E020E030E061E070E0AF01022E1F
:1000900002C0559547950A94E2F740FF02C0AA9A1C
:1000A00001C0AA98AF9845E04A95F1F7AB01022E3E
:1000B00002C0440F551F0A94E2F7999B03C0842B9A
:1000C000952B04C04095509584239523AF9A2F5FBC
:1000D0003F4F28303105D1F6AA9A23E02A95F1F74F
:1000E00000000895AA9AAF9AAE9881E090E00E942D
:1000F0003E0083E490E00E943E0080E090E00E9499
:100100003E0081E090E00E943E0080E090E00E948E
:100110003E00AA9A89EF90E00197F1F700C0000035
:10012000AE9A83EC99E00197F1F700C00000AA9A1B
:10013000AF9AAE9881E090E00E943E0084E490E0A7
:100140000E943E0080E090E00E943E0081E090E04E
:100150000E943E0083E090E00E943E0080E090E03C
:100160000E943E0080E090E00E943E0080E090E02F
:100170000E943E0080E090E00E943E00AA9A89EF33
:1001800090E00197F1F700C00000AE9A83EC99E08F
:100190000197F1F700C00000AA9AAF9AAE9881E0EB
:1001A00090E00E943E0083E490E00E943E0080E0E8
:1001B00090E00E943E0080E090E00E943E008AE5D0
:1001C00090E00E943E008AE590E00E943E008AE5B1
:1001D00090E00E943E008AE590E00E943E008AE5A1
:1001E00090E00E943E00AA9A89EF90E00197F1F713
:1001F00000C00000AE9A83EC99E00197F1F700C0CF
:100200000000AA9AAF9AAE9881E090E00E943E006A
:1002100082E490E00E943E0080E090E00E943E0078
:1002200080E090E00E943E0080E090E00E943E006E
:1002300080E090E00E943E0080E090E00E943E005E
:1002400080E090E00E943E0080E090E00E943E004E
:10025000AA9A89EF90E00197F1F700C00000AE9AEA
:1002600083EC99E00197F1F700C000000895A79A88
:10027000A198A99AA398AB9AA29AA69A0C947200F4
:10028000CF93DF93AA9AAF9AAE9881E090E00E9454
:100290003E0082E490E00E943E0080E090E00E94F8
:1002A0003E0080E090E00E943E00C0E6D0E08883FF
:1002B00080E090E00E943E00898380E090E00E9410
:1002C0003E008A8380E090E00E943E008B8380E0C5
:1002D00090E00E943E008C8380E090E00E943E000F
:1002E0008D830000AA9A0000AE9A8BE49DE10197ED
:1002F000F1F700C0000081E090E0DF91CF91089518
:100300008FEF8ABB0E9437010E94400180916000FC
:080310008BBBFACFF894FFCF7C
:00000001FF
